:020000040800F2
:100000007808002059010008B9210008BF20000825
:1000100000000000000000000000000000000000E0
:1000200000000000000000000000000003220008A3
:100030000000000000000000012200080522000866
:100040006B010008000000006B0100086B01000854
:100050006B0100086B0100086B0100086B010008D0
:10006000000000006B0100086B0100086B01000834
:100070006B0100086B0100086B0100080000000024
:100080006B0100086B010008000000006B01000814
:100090006B0100086B0100086B0100086B01000890
:1000A0006B0100086B0100086B010008592600086D
:1000B0006926000800F002F800F03EF80CA030C8F5
:1000C000083824182D18A246671EAB4654465D46D4
:1000D000AC4201D100F030F87E460F3E0FCCB64660
:1000E0000126334200D0FB1AA246AB4633431847E1
:1000F000A03C0000C03C0000103A02D378C878C190
:10010000FAD8520701D330C830C101D504680C6059
:10011000704700000023002400250026103A01D378
:1001200078C1FBD8520700D330C100D50B607047AF
:100130001FB51FBD10B510BD01F0AAF81146FFF79D
:10014000F7FF02F07BFD01F0C2F803B4FFF7F2FF06
:1001500003BC01F015F90000074880470748004735
:10016000FEE7FEE7FEE7FEE7FEE7FEE70448054997
:10017000054A064B7047000061220008B5000008E0
:1001800078020020780800207804002078040020FD
:1001900001E004C0091F0429FBD28B0701D50280AE
:1001A000801CC90700D00270704700290BD0C3071C
:1001B00002D00270401C491E022904D3830702D5D5
:1001C0000280801C891EE3E70022EEE70022DFE7C1
:1001D000002203098B422CD3030A8B4211D3002344
:1001E0009C464EE003460B433CD4002243088B421E
:1001F00031D303098B421CD3030A8B4201D39446AB
:100200003FE0C3098B4201D3CB01C01A524183099D
:100210008B4201D38B01C01A524143098B4201D357
:100220004B01C01A524103098B4201D30B01C01A82
:100230005241C3088B4201D3CB00C01A52418308FC
:100240008B4201D38B00C01A524143088B4201D329
:100250004B00C01A5241411A00D201465241104689
:1002600070475DE0CA0F00D04942031000D34042FE
:10027000534000229C4603098B422DD3030A8B4234
:1002800012D3FC22890112BA030A8B420CD38901D2
:1002900092118B4208D3890192118B4204D38901B8
:1002A0003AD0921100E08909C3098B4201D3CB01F6
:1002B000C01A524183098B4201D38B01C01A5241AB
:1002C00043098B4201D34B01C01A524103098B42AF
:1002D00001D30B01C01A5241C3088B4201D3CB009A
:1002E000C01A524183088B4201D38B00C01A52417D
:1002F000D9D243088B4201D34B00C01A5241411A54
:1003000000D20146634652415B10104601D3404281
:10031000002B00D54942704763465B1000D3404232
:1003200001B50020C046C04602BD70477047704707
:100330000246C80FC00781434B0030B54B405B00FD
:100340009B0D20D01923DB06C91801231B059942F8
:1003500020DB0324A40704251346AB400BD3002B5A
:1003600004D1EB0613409B00E34204D4012464074C
:10037000002312195941FF231B0599420BD2C900D2
:100380000143500F09E0CB0204D5014308030243A7
:1003900005D0054830BDFF21C905084330BD0846DA
:1003A00007210905884330BD0000C07FF0B50C4629
:1003B000871A9C410D46861A9D4103D2C01BA1415C
:1003C000D21963410D0D1F0DC94EEC1BAE435CD01D
:1003D0007F057F0D0026002F51D02D05AC46A94387
:1003E000DD020123ED0A1B051D4320231B1B24D422
:1003F0001746E740381871412F46E740CC199D4019
:100400002818314661410C0D27D161449A4013D51B
:100410000023401C594152000ED1400840000122E7
:100420004B005205D34207D305204007C14201D5F6
:10043000B04900E0B0493046F0BD6B00002A00D062
:1004400001229A181F23203C1B1B01D5002302E028
:10045000E540281871410C0DD7D001242405091955
:10046000C407CD0740084908E40F28436144002C25
:10047000D5D00024401C61419A40D0D1CDE76A0517
:10048000520DD9D1C90FC907D5E79C4D4E000028A0
:1004900001D0012400E0002434195F00002A01D0BB
:1004A000012600E00026BE19954FAC420CD8AE42A2
:1004B0000AD8B44206D001256D05EC42BCD01046E6
:1004C0001946F0BD9942FCD000203946F0BDF0B588
:1004D0001FB40C460F46811A9F412546861A9D413E
:1004E00006D20125ED076F40401ABC4152187B41EE
:1004F000210D1E0D8D1BAC467D4D8D437ED07505A7
:100500006D0D7CD00D05AE46AC431B031B0B794D26
:1005100052429D41202366469B1B14D31746F74049
:10052000381800260090744160462F460741E419B0
:1005300000989D402818664116D4714671189A405B
:1005400025D5012320E093182A466A415200002B4A
:1005500000D0521C1E23203E9B1B002B61DD354129
:10056000EE1728186641E8D5001876415B1C9A40C2
:1005700000D3401C4B05F3181524E34010D3002B87
:1005800052D071467118D30FC01802D3491C05B060
:10059000F0BD0123DB079A42F9D140084000F6E79D
:1005A00001225205B21801D1002853D00123CC0AF0
:1005B000DB029943891E002A08D1020C03D0020CE9
:1005C0000004103902E00246002020390023550BB8
:1005D00005D112020823550B01D152010D23550CF0
:1005E00001D112011B1DD50C01D192009B1C150DD0
:1005F00001D152005B1C2025EE1A01E02CE022E024
:100600000546F54015439840CA1AE10769181305D5
:10061000C918002ABBDA032040070818C10FC90710
:100620000FE071466118B2E7F10740080843711006
:1006300071444A000CD001235B059A42A7D2C90F2E
:10064000C9070020A3E74905490D26D1002001E094
:100650000028F4D100219AE7284D6600002801D037
:10066000012100E0002171185F00002A01D001265D
:1006700000E00026BE19224FA94210D8AE420ED883
:10068000B14208D001256D05E94206D01946A802FD
:10069000414010467BE79C4201D0214677E700208D
:1006A000394674E710B50C465C4005D50124E407D3
:1006B0006340FFF70CFF10BDFFF778FE10BD30B4AC
:1006C0000C465C4004D50124E407634030BC6DE671
:1006D00030BCFCE670B50124E40761400D465D4086
:1006E00002D4FFF763FE70BD6340FFF7F0FE70BDFC
:1006F000FF0700000000F0FF0000F07F0000E0FFB7
:100700000000F87FF0B5F94D0C091E092C402E4071
:100710002F468BB0A7437DD0B543FCD0002E7AD0B6
:10072000002CFCD00D465D40ED0F2543AC1BFF2592
:10073000AD0464190894C502440DC9022143500D4B
:10074000DC0204430120C00701430443D2020191AB
:10075000200C110C00958C46010423468B430A9112
:1007600061460904E24D8A430991010A7D44491911
:100770008039097805464D4301266D18F605751B2D
:100780006943C90C640B891C4C436418B5012C1BCC
:10079000250C2E04B4434C434D43210C69188909A0
:1007A0000591009DE90701D00121C90704912C465C
:1007B00001996708CD072F434C08059DE10B4D4378
:1007C0002D0C29466646754302950D4645432E4637
:1007D000029D7D1BB44100950D465D4301942C0C98
:1007E0002F040D465543AE462D0C3D430295039410
:1007F0007546049C2D04641B049406D2029C039D40
:10080000641C002675410395029401AC70CC009FD6
:100810007D1B01E03EE162E1B441090400950791CE
:1008200001940599A4086143090C0C464443650BE7
:10083000E7040C4666467443A646640B3C430395A6
:1008400002947446049DE4042C1B049406D2029C7A
:10085000039D641C002675410395029401AC70CC85
:10086000009F7D1BB44101940C465C430095650FCD
:10087000E7000C465443A646640F3C43039502949C
:100880007446049DE4002C1B049406D2029C039D34
:10089000641C002675410395029401AC70CC009F46
:1008A0007D1BB441AE09AF06049DC900AD092F43BD
:1008B000049DA406AD060495079D3443691807916D
:1008C000059DE10B4D432D0C294666467543029567
:1008D0000D4645432E46029D7D1BB44100950D46B5
:1008E0005D4301942C0C2F040D465543AE462D0C50
:1008F0003D43029503947546049C2D04641B0494A7
:1009000006D2029C039D641C002675410395029447
:1009100001AC70CC009F7D1BB44101948C05069402
:10092000079C890A611800950791019C0599A40804
:100930006143090C0D464543680BEF040D466446C0
:1009400065436C0B3C43049FED047D1BAC4602D217
:100950000025641C6841009E019D371B85410846A7
:10096000584301950C46460FC5005443600F284379
:100970006546E4002C1B02D20025401C6E41019DFF
:100980003F1AB5412846BD09800628438446A00980
:10099000BF064E020699A40676180743079D00205D
:1009A00068410A99079019430020099B009060460E
:1009B000FF1913434041E20F64003A43A446044642
:1009C000D71A8C41A04203D90120009020463A4614
:1009D000C70F941840416246D20F22436446640018
:1009E0000494009CBE466400D71AA44604460297AD
:1009F0008C417746002F01D1A04204D96046401CAB
:100A00008446029A2046C40FA64694184041049A90
:100A10000546D20F224364466400D31A8D417146C5
:100A2000002901D1A84202D928461A46641C104365
:100A30000122002800D0164361020020079B89197B
:100A400004465C410223002C02DB49181346644132
:100A5000089DCE0A2D145D194B056705E10A2C058A
:100A60000D1908993E43C9076940002B08D09340EF
:100A700006D30022761C5141002B01D17608760066
:100A80001C4A002D43DB154241D0AA433FD03046DB
:100A90000BB0F0BD06180D464D41174C7642AC41E7
:100AA0001AD395181C465C41134A6D42A24113D3D8
:100AB000012252054C00D4420AD15C00D4420BD032
:100AC0004B4002D592021143E2E749004908DFE7B3
:100AD0005940C90FC90718E000200849D8E7054860
:100AE00001420DD10342F7D0F2E700000000FF07FA
:100AF000943400000000F07F0000E0FF0000F87F69
:100B0000114859400143C01241400020C0E7012371
:100B1000089A9B069A4205DC032252078918C90FDE
:100B2000C907B5E7052252078918074A1143D212AF
:100B30005140ADE770B515461C4602460B462846A7
:100B40002146FFF7DFFD70BDFFFFFF7F1F22030C73
:100B500002D10F22000402D0030E03D004E00020D3
:100B6000014670470002083A030F01D10001121F2D
:100B7000830F01D18000921E002801DB4000521E2D
:100B8000120551184205C012411810467047C10F96
:100B9000C90700D04042012292071143D6E7012144
:100BA0008907D3E7F0B58B4C0F09254689B0BD43C3
:100BB0007BD01D092646AE43FAD00E465E40274044
:100BC000F60F3E43254071D024012142FBD0FF2483
:100BD000AD19A4042D1B039501252D05DB02DB0AAD
:100BE000C9022B43C90A29431E010901040F130F2F
:100BF000050121431701880B820391432D098C467F
:100C0000A90B1E438A039543B30B9A0396433F09EE
:100C1000BA0B9403A74302962E467E430497B6462A
:100C20004E19D7190C460196544305977E43371B3E
:100C30007646BF1B3601B646BE0B36190096764681
:100C4000BC043719009C01D3641C00946400002F7D
:100C500001D001263443029E049F754366467E43BD
:100C60000496760034196E0034190094029C019E9B
:100C70001C196643751BAE46069465464519059CCE
:100C800005956C43594375460891691A0191049E74
:100C900001465143A41B0491611A009C0791E1068F
:100CA00005D061090122114302E072E06EE06109A2
:100CB000089D00272C0A2D066918049D7C412A0AEC
:100CC0002D066918019D6241AC0DAD026D185441AD
:100CD000079A910D920255196141029A6446584350
:100CE0005443069B059A5A43121A131B9A0E9B01F2
:100CF0005B187A41010B0005C3185141220A2006F6
:100D000044195A419A4200D2491C012040028142B2
:100D100003D315230226F64302E014230326F643E9
:100D20002020C51AA9401746AF40DA400A432046A2
:100D30000399D8400914731819055118039A3843B8
:100D4000D2075140AC4009D00122944006D3002282
:100D5000401C5141002C01D1400840001E4A9342E2
:100D600012D3012203989206904207DB0520400728
:100D700009181A480143C012414004E0032040070B
:100D80000818C10FC907002009B0F0BD0020F10705
:100D9000FAE705180C464C4111486D42A04115D3A5
:100DA00094181A465A410E48644290410ED30120CD
:100DB0004A004005824209D35A00824206D3594074
:100DC000C90F084AC90700201143DDE70020064982
:100DD000DAE700000000FF07FE070000FFFFFF7FCB
:100DE0000000E0FF0000F07F0000F87F0121C9054E
:100DF0000123411842001B06D3185B0E0AD0C11014
:100E00000722D206891840075242D14201D552002A
:100E100089187047090208D50146002A03D0C10F7E
:100E2000C9070020704710467047420202D00020D8
:100E300002497047072109050143F4E70000F87FE4
:100E4000F0B5FF252D04C609C209FF2704462E4030
:100E50000137CB093E4348402A402B400746002A31
:100E60006BD0002B69D0AA4267D0AB4265D0002876
:100E700000DA32460125ED0529432C430902200200
:100E8000090AD21A4B0C7F24E31A434C000A7C4413
:100E9000E35C7D242404121914145B00A218884218
:100EA00001D3521C00E0400049420C465C4324112F
:100EB0005C43DB016415E318040A5C43C502200DA2
:100EC0000C4644436419250A5D432303EC0C0D468C
:100ED000654300030019EB184C42A34201D35B1891
:100EE000401CD4052018002B07D05B00C91804D380
:100EF000401C002901D1400840003F2189048A425A
:100F000009D3002A08DC1106090F04D00321490780
:100F10004018C00FC007F0BD012241001206891819
:100F20007F2252069142F6D205214907C84201D5D7
:100F30009010F0BDFF20C005F0BD002F00DA324652
:100F40001648AA4207D2AB4205D21902090E17D0A1
:100F5000F80FC007F0BDFF2563002D06AB42F9D89E
:100F60004900A942F6D8AB4201D1A942F2D0A94228
:100F700001D1002101E061004908D0050843F0BD1E
:100F80001102090EFBD0FF200243D005F0BD0A4636
:100F90000146104654E70000F22D00000000C07F1B
:100FA00010B501469E240002CA15A307002A02D0EC
:100FB0001843002A04DBA21A002A0CDDD04010BD21
:100FC0001206120E01D140004008A21A03D4D040EC
:100FD00040420028F3DDFF2248001206904201D96A
:100FE000002010BDC817C043584010BD0102C215F3
:100FF00004D00123DB071943002A0ADB9E239A1A37
:1010000002D40846D0407047FF22410012069142A8
:1010100001D900207047C017C04370471F22030C3E
:1010200002D10F2200041CD0030E01D10002083AA5
:10103000030F01D10001121F830F01D18000921E06
:10104000002801DB4000521ED2055118021251182F
:101050001922904004D3491C002801D149084900B5
:1010600008467047C10FC90700D0404201229207CD
:101070001143D3E701218907D0E710B500F038F814
:10108000006810BD10B5044600F032F8046010BDD1
:1010900070B505464800440D124B0020002C0AD0C4
:1010A000634008D09A4206DA6642B24203DD120576
:1010B0004019514170BD002C08D0002B09D0C90F38
:1010C000C907002AF6DB084A114370BDC90FC907DA
:1010D00070BD28460A03104302D00020034970BDAA
:1010E000284670BDFF0700000000F07F0000F87F79
:1010F0000048704718020020F8B5224C4E00069DAB
:10110000A6420AD8A64201D1002806D15E00A64216
:1011100003D8A6420AD1002A08D00D24240425426F
:101120002CD02946002000F0DAF8F8BD0C461C430C
:101130000CD4994202D0EFF30080F8BD904202D067
:10114000EFF30080F8BDEFF30080F8BD0924240719
:10115000E5008B4206D0EFF30080A043591A06D277
:10116000284304E0101A05D3EFF30080A04380F376
:101170000088F8BDEFF30080A043F1E7009500F090
:10118000C5F8F8BD0000E0FFF0B53D4B02460C4647
:101190001C400020002C63D03A4D8B4366D00029C0
:1011A0006BDB0B0D1D05A94301252D0529430124EA
:1011B000FD33E34001D392184941FF3381339C460C
:1011C0008B02940D0121234389074C429202002790
:1011D0001B198C105D1A04D42D1B02D42B466500FC
:1011E000491992185B416408F4D15C1A08D40125AE
:1011F000ED07EE175519744102D42A462346491CBF
:1012000094185B41012292071D46E61B8D4106D4CE
:10121000B61A854103D42B46550034467F1924194C
:101220005B415208802AEFD1234300D00223384685
:101230000A22D04001D3012213438A05104362469B
:10124000890A12058918002B09D00122D34002D344
:101250000022401C5141002B01D140084000F0BD4C
:101260000B03134307D0C90FC907F0BD0803104390
:1012700003D1002901DB1046F0BD00202946F0BD56
:101280000000F07F0000F87F00487047180200203F
:101290007546FFF7F9FFAE46050069465346C0089C
:1012A000C000854618B020B5FEF760FF60BC00277F
:1012B0004908B6460026C0C5C0C5C0C5C0C5C0C522
:1012C000C0C5C0C5C0C5403D49008D46704710B57A
:1012D0000446C046C0462046FEF737FF10BDC80290
:1012E00012D54803400F002804D0C803C043012191
:1012F00088407047EFF300800001000903210907CF
:10130000084380F3008870470020704710B5002024
:101310000249029A00F004F810BD00000000F87FB6
:1013200010B50C461107090F092904D00A290AD063
:1013300008290CD104E011460820FFF7D0FF06E091
:10134000510606D501E0510601D50120C00721460E
:1013500010BDD10607D501010909CC084907000EC7
:101360000006044309E0410F20024907000A014337
:10137000200E00061D22D14101430846E7E7000088
:1013800001491820ABBEFEE726000200704770B589
:101390000024014620314A78022A03D004218163C7
:1013A000012416E0026813680E25AB43136002683F
:1013B00013685B085B0013600122056C1346AB40A9
:1013C000C56B6B604A7000220A70416B002900D027
:1013D0008847204670BD31B500F0BCF8009C05463A
:1013E000601C00D0641C00F0B5F8401BA042FAD38A
:1013F00038BD0000F8B500238DE001249C40A446D0
:1014000022407DD04C68022C01D0122C0CD1DC087B
:10141000A40027183C6A5D07ED0E0F26AE40B443CA
:101420000E69AE4026433E6205685E000324B44068
:101430000F79A543BF07BF0FB7402F4307604D6823
:10144000012D05D0022D03D0112D01D0122D0ED16A
:101450008568CF68A543B7402F43876047686546D6
:10146000AF430D79ED06ED0F9D403D434560C568E6
:10147000A5438C68B4402C43C4604C68E40049D553
:10148000284CA56901263543A561A4699D0834400F
:101490000094254CAD002F19BC689D072E0F0F2519
:1014A000B540AC430925ED06A84201D100250FE067
:1014B0001E4DA84201D101250AE01D4DA84201D1CF
:1014C000022505E01B4DA84201D1032500E00525BA
:1014D000B5402543BD60184C25684E689543F6031A
:1014E00000D51543256065684E689543B60300D561
:1014F00015436560A5684E689543F60202D500E085
:1015000008E01543A560E5684E689543B60200D52E
:101510001543E5605B1C0A681446DC4000D06CE7AC
:10152000F8BD000000100240000001400004004827
:1015300000080048000C0048000401400069084011
:1015400000D001207047002A01D08161704781627C
:10155000704700000148006870470000400000200C
:1015600002480168491C01607047000040000020EB
:1015700010B506480168102211430160002000F0F8
:1015800007F800F017F8002010BD0000002002400E
:1015900010B5044600F03AF97D21C900FEF718FEA7
:1015A00000F030FB00222146501E00F021F8002000
:1015B00010BD000008B5084881690122114381610E
:1015C000816911400091C26901040A43C261C06986
:1015D0000840009008BD000000100240C106C90E7E
:1015E00001208840014908607047000000E100E0E8
:1015F00010B500F0E3FD10BDF8B505460068354CA8
:10160000C00352D5E0690026C00007D4E169200478
:101610000143E161E1690140012600912E48016822
:10162000C90510D40168821511430160FFF792FFCC
:10163000074604E0FFF78EFFC01B642824D8264825
:101640000068C005F6D5206A03273F02384020D045
:101650006968394081421CD0206A226AB84301215E
:1016600009040A432262226A8A4322622062C00776
:101670000FD0FFF76FFF009008E0FFF76BFF0099B6
:10168000411A1648814201D90320F8BD206A80071B
:10169000F3D5206A6968B84308432062002E04D05D
:1016A000E169012000078143E1612878C00705D086
:1016B000206BA96880088000084320632878800692
:1016C00005D5206B10218843E9680843206300207A
:1016D000F8BD0000001002400070004088130000B8
:1016E000F8B5054644480E460068C007C00FB04232
:1016F0000AD2414801684908490031430160006845
:10170000C007C00FB0425CD128783C4C800705D59B
:101710006068F0218843A968084360602878C007A2
:101720003FD06868012813D02168022813D08907A8
:10173000002946DA61688908890001436160FFF782
:1017400009FF6968074601290DD0022917D024E056
:1017500021688903ECE78901EAE7FFF7FBFEC11B7B
:101760002748814217D860680007800F0128F4D10C
:1017700017E0FFF7EFFEC11B214881420BD86068DC
:101780000007800F0228F4D10BE0FFF7E3FEC11B36
:101790001B48814201D90320F8BD60680007800F13
:1017A000F3D115480168C907C90FB1420BD90168C7
:1017B00049084900314301600068C007C00FB042CA
:1017C00001D00120F8BD2878400706D560680721C0
:1017D00009028843E9680843606000F02DF86168F9
:1017E000084A0906090F515CC840074908600020F3
:1017F000FFF7CEFE0020F8BD00200240001002409E
:1018000088130000EC3B00084400002001480068F9
:1018100070470000440000200448054900684968FA
:10182000044A4905490F515CC840704744000020F4
:1018300000100240FC3B000810B512A30FCB88B08B
:101840006C460FC413A30FCB0FC416494A680C2073
:10185000134603401448042B0FD0082B0DD19302DC
:101860001B0F6C46E45CC96A04AB0907090F595C9D
:10187000D20304D5FEF7ACFC604308B010BD0B48A2
:101880006043FAE702030405060708090A0B0C0D7A
:101890000E0F10100102030405060708090A0B0CBD
:1018A0000D0E0F100010024000127A0000093D00DA
:1018B000FEB504460078D04DC00747D068680007E1
:1018C000800F012807D068680007800F022809D11F
:1018D0006868C00306D52868800337D5606800288B
:1018E0007ED033E0012062680004012A11D081001B
:1018F000002A01D0052A10D02A6882432A6028686D
:10190000884328606068002814D0FFF723FE06464D
:101910000CE0296801432960F4E72A680A432A6039
:10192000F7E7FFF717FE801B64286FD8286880034D
:10193000F7D50BE0FFF70EFE064604E0FFF70AFEC0
:10194000801B6428F1D828688003F7D4207801260A
:10195000800700283BDA68680007800F07D06868B6
:101960000007800F022809D16868C00306D42868E0
:10197000800715D5E068012832D111E0E068002821
:10198000286815D030432860FFF7E4FD074604E0DF
:10199000FFF7E0FDC01B0228C7D828688007F7D5ED
:1019A0002868F82188432169C900084328600EE0AF
:1019B000400840002860FFF7CDFD074604E0FFF730
:1019C000C9FDC01B0228B0D828688007F7D420784A
:1019D000000724D5E0690028686A10D0304300E091
:1019E00008E16862FFF7B6FD074604E0FFF7B2FDC5
:1019F000C01B022899D8686A8007F7D50FE0400815
:101A000040006862FFF7A6FD074605E09DE0FFF78E
:101A1000A1FDC01B022888D8686A8007F7D4207807
:101A200004274007002860DA00200190E869C00020
:101A300008D4E969B8060143E961E9690140012078
:101A4000009101906D480168C90511D401688215A3
:101A500011430160FFF77EFD009005E0FFF77AFD7E
:101A60000099401A642870D864480068C005F5D50C
:101A7000A06801280AD0002801D0052810D0286AC3
:101A8000400840002862286AB84301E0286A3043D1
:101A90002862A068002812D0FFF75CFD00900AE0E1
:101AA000286A38432862F1E7FFF754FD0099411A8C
:101AB0005348814249D8286A8007F5D50DE0FFF7E1
:101AC00049FD009006E0FFF745FD0099411A4C489A
:101AD00081423AD8286A8007F5D40198002804D0BA
:101AE000E969012000078143E9612078C00635D506
:101AF000606901280CD0401D686B23D038436863AF
:101B0000686B400840006863FFF724FD064622E04A
:101B1000686B38436863686B30436863FFF71AFD8E
:101B2000064604E0FFF716FD801B02285BD8686BB1
:101B30008007F7D5686BF8218843A169C90008437D
:101B400068630BE0B8436863F4E74CE0FFF702FD1D
:101B5000801B022847D8686B8007F7D4206A0028CA
:101B600046D069680907890F022943D00126360645
:101B70000228286805D0B0432860FFF7EBFC044634
:101B800033E0B0432860FFF7E5FC074604E0FFF7C9
:101B9000E1FCC01B022826D828688001F7D4E86A37
:101BA000E16A000900010843E862616AA06A08432B
:101BB00069683D22120491430843686028683043F5
:101BC0002860FFF7C7FC044604E0FFF7C3FC001BD6
:101BD000022808D828688001F7D509E0FFF7BAFC89
:101BE000001B022801D90320FEBD28688001F5D41E
:101BF0000020FEBD0120FEBD00100240007000402C
:101C000088130000094910B5401E884201D90120FF
:101C100010BD074C60610321081F00F0CFFA0020BF
:101C2000A06107202061002010BD0000FFFFFF0021
:101C300000E000E070470000F8B503680446D96989
:101C400018680D072D0F07D18A0605D5820603D522
:101C5000204600F0C7FBF8BD9A68002D64D0D50778
:101C6000ED0FFF26213606402E435DD0CE0706D06D
:101C7000C60504D501261E62E36E3343E3668F0773
:101C800002230426002F06DAD70704D027683B6218
:101C9000E76E3743E7664F0706D5D20704D02268C0
:101CA0001662E26E1A43E2660A0709D52022024054
:101CB0002A4305D0236808221A62E36E1343E366C1
:101CC000E26E002AC7D0890604D5800602D52046D8
:101CD00000F088FBE06E000703D4206880684006AF
:101CE0001CD5204600F062FB20688168490611D5AA
:101CF0008168402291438160606E00280AD01249B9
:101D00004163606EFFF743FB0028A4D0606E416B17
:101D10008847F8BD2046FFF78DFFF8BD2046FFF746
:101D200089FF0020E066F8BD0A0605D5020603D546
:101D3000204600F02DFCF8BD4906FCD54006FAD53A
:101D4000204600F042FBF8BD9923000870B504005E
:101D500005D025466035687A002802D006E00120CB
:101D600070BD00202872204600F026F824206872FA
:101D700020680168490849000160204600F070FBB6
:101D80000128EDD0606A002802D0204600F096FAC3
:101D9000206841680122D202914341602068816835
:101DA000082291438160206801680122114301608B
:101DB000204600F0E8FA70BDF0B587B00446142163
:101DC0006846FEF703FA264F0121266800222548BF
:101DD0004904022303240125BE421DD18769CE1088
:101DE0003743876187693740059746690E434661E7
:101DF00040690193084005906002009002AE34C62D
:101E000009206946C006FFF7F5FA002211461B209B
:101E1000FFF7EEFB1B201EE0134FBE421DD1C6692B
:101E20000E43C661C6690E40059646690E4346617B
:101E300040690193084005900C20009002AE34C622
:101E400009206946C006FFF7D5FA002211461C207A
:101E5000FFF7CEFB1C20FFF7C1FB07B0F0BD000071
:101E600000380140001002400044004070B50346B5
:101E700060339C7A202C39D100290BD0002A09D05C
:101E8000012584682D03AC4206D10669002E03D1DA
:101E9000CE0701D0012070BD1E7A012E26D001266A
:101EA0001E724165014640310A834A83FF22AC42DB
:101EB00004D10469002C07D10D4A05E0002C04D19F
:101EC0000469002C00D07F228A830021C16622226F
:101ED0009A72197201688A6832438A6000680168E0
:101EE000FF22213211430160002070BD022070BD2D
:101EF000FF010000F8B501223B493C48FFF7B6FF5F
:101F000039483B490378401FC26800248B54521C57
:101F1000C2603F2A00DDC460AF2B64D14B780370F0
:101F2000C2681B1D026193425CD10225931E04E02E
:101F30004E5D4778F61946706D1C9D42F8DB43787C
:101F400083708A184470203A957F9D4249D18B78DE
:101F5000022B06D0102B24D0202B40D0702B3BD14D
:101F600012E0517F0B0000F087FB050406080A0C05
:101F70003700622106E0632104E0772102E061215D
:101F800000E00421017127E0CA780B791202D2180F
:101F90004B791202D21889791202511841614921F4
:101FA000F0E750220271CA78012A04D0022A08D030
:101FB000032A11D10BE00A79497912025118C18024
:101FC0000AE00A79497912025118018104E00A797C
:101FD00049791202511841810121C17002E04D215D
:101FE000D0E7C470C460F8BD25000020B800002010
:101FF000D8010020FFB5064604466036707A83B0EB
:102000000D46202858D1002D0CD00598002809D065
:102010000120A1680003814207D12069002804D172
:10202000E80702D0012007B0F0BD307A012843D084
:10203000012030720020E06621207072FFF78AFADA
:10204000019027464037059838820598788218E035
:10205000788A401E788206980090002280212046CF
:10206000019B00F0C8FA002818D10120A1680003E4
:10207000814202D12069002812D021682878088581
:102080006D1C788A0028E3D1069800900022402138
:102090002046019B00F0AFFA002808D00320C2E7D9
:1020A00028882168C005C00D0885AD1CE9E72020FF
:1020B000707200203072B6E70220B4E77047FEE786
:1020C000F0B587B014216846FEF780F820484269D1
:1020D0000121C9040A43426142690A4005924269EA
:1020E00089100A43426142690A40059242694900E7
:1020F0000A434261406909260840F606059000221D
:1021000002213046FFF71FFA124F0022B121384654
:10211000FFF719FA02200024012500900294694675
:10212000019503943046FFF765F9B12000900294C1
:102130006946019503943846FFF75CF9402000900A
:102140000194694602943846FFF754F907B0F0BD90
:10215000001002400004004810B50A480849016018
:102160004B21C901416000218160C1600161816131
:10217000C1610C22016242614162FFF7E7FD10BDBF
:10218000003801404800002010B50A4808490160A5
:102190004B21C901416000218160C1600161816101
:1021A000C1610C22016242614162FFF7CFFD10BDA7
:1021B00000440040B8000020704700008307FF2261
:1021C000DB0E9A408907090E994000280BDA0007B8
:1021D000000F0838830808489B001818C369934308
:1021E0000B43C3617047830804489B001B181868A1
:1021F000904308431860704700ED00E000E400E001
:102200007047704710B5FFF7ABF910BD30B595B00A
:1022100030216846FDF7DAFF00240F9402200D9468
:102220000E94009012940125139410200C940395A1
:1022300004901094119408946846FFF739FB072026
:102240000C900D940E9400210F940CA8FFF748FAFF
:1022500010A810951294FFF7CFF915B030BD00000B
:10226000134801680122114301604168114A11407D
:1022700041600168104A1140016001680122920426
:102280009143016041683F22120491434160C16A59
:1022900009090901C162016BFF22143291430163F4
:1022A000416B49084900416300218160704700008B
:1022B000001002400CB8FF08FFFFF6FE10B5818C3D
:1022C000C90707D001684A6801235B049A43836AFF
:1022D0001A434A60818C890707D501684A6801233F
:1022E0001B049A43C36A1A434A60818C490707D585
:1022F00001684A6801239B049A43036B1A434A60AE
:10230000818C090707D501684A680123DB039A43DA
:10231000436B1A434A60818CC90607D502689168ED
:1023200001231B039943836B19439160818C8906B8
:1023300007D501688A6801235B039A43C36B1A437C
:102340008A60818C490612D503685A680121090503
:10235000046C8A4322435A60026C8A4207D10268A5
:10236000516803235B059943436C19435160818C89
:10237000090607D501684A680123DB04806C9A438B
:1023800002434A6010BD0021C166202260304272C3
:10239000827201720846704710B5406A00220146F9
:1023A00040314A834A82FFF745FC10BD01680A6844
:1023B000FF2321339A430A6001688A685208520059
:1023C0008A60202160308172704710B501680A6808
:1023D00040239A430A60202269210A54FFF76EFEC7
:1023E000002010BD70B50246403203466033948B26
:1023F0009D7A0168222D05D08869082210438861E2
:10240000022070BD898C012685683603B54202D151
:102410000569002D0BD02140446D651C4565217078
:10242000518B491E0904090C518307D015E0456DF5
:1024300021402980416D891C4165F1E701680A68E6
:10244000FF242134A2430A6001688A6852085200BE
:102450008A6020219972FFF74DFD002070BD0000B9
:10246000F8B504462369A268E5691A436369102038
:102470002B43002125681A432B680E463E4F3B40F4
:1024800013432B6023685A6803252D03AA43E5688C
:102490002A435A60236AA26925681A43AB680B274E
:1024A0003F02BB431343AB60344A2568954210D1C9
:1024B000334A126B9207920F0ED0012A05D0022ADE
:1024C00005D0032A09D1022007E0042005E00820F6
:1024D00003E02C4A954200D100200122E369D20397
:1024E000934224D100280CD002280DD0042813D008
:1024F000082817D001260A0912010807400F1043C7
:102500002FE0FFF789F909E061681F4A4808801841
:10251000FDF75EFE81B2EEE7FFF78EF961684000DD
:102520004A08F4E76168012248081204EFE700282E
:1025300008D0022809D004280BD0082814D001267E
:102540003046F8BDFFF768F905E061680F4A4808B2
:102550000CE0FFF771F961684A088018FDF738FE52
:1025600080B22168C860EBE7616848088018FDF711
:102570002FFE80B2E860E3E7F369FFFF0038014017
:1025800000100240004400400024F40000127A00D1
:102590006921095C212901D002207047024640329E
:1025A000518A002912D0012381681B03994202D16C
:1025B0000169002915D0C16C4B1CC36400680978FF
:1025C0000185508A401E50820020704701680A68C9
:1025D00080239A430A600068016840221143016029
:1025E000F2E7C16C03680988C905C90D1985C16C7A
:1025F000891CC164E5E7FFB581B017460E46044665
:102600000A9D1DE0681C1BD0002D05D0FEF7A2FF1F
:102610000499401AA84213D920680168FF22A13208
:102620009143016020688168490849008160202049
:1026300060346072A07200202072032005B0F0BDEB
:102640002068C1693046884304D00020B842D9D000
:102650000020F3E70120F9E710B50248FFF7ECFA94
:1026600010BD00004800002010B50248FFF7E4FA52
:1026700010BD0000B800002030B47446641E2578F8
:10268000641CAB4200D21D46635D5B00E31830BCA6
:10269000184700004900CA020243100000D004207D
:1026A0004A0D01D001221043044A490D914201D143
:1026B00002210843012800D105207047FF070000D0
:1026C000F8B504464F1EC8000838211815461E46A6
:1026D000086849683A4606239A4310D02A4633468A
:1026E000FEF760FA3A46D200083AA3181A687F1E2D
:1026F0005B68FDF7D7FF06223B469343EED1022FDE
:1027000023D0042F11D0062F2FD12A463346FEF7AF
:1027100049FAE36AA26AFDF7C5FF2A463346FEF787
:1027200041FA636A226AFDF7BDFF2A463346FEF787
:1027300039FAE369A269FDF7B5FF2A463346FEF789
:1027400031FA63692269FDF7ADFF2A463346FEF789
:1027500029FAE368A268FDF7A5FF2A463346FEF78B
:1027600021FA63682268FDF79DFFF8BD002210B5CD
:10277000134610460149FDF7C5FF10BD0000F03FAC
:1027800010B50122FEF784FC10BD10B5FDF78AFFDD
:1027900010BD002210B5134610461146FDF7B2FFDA
:1027A00010BD000010B50721024A00200907FEF7FE
:1027B0006FFC10BD01030000034A10B50020110793
:1027C000FEF766FC10BD000001FDFFFFF8B5164FD7
:1027D0000020164E3870002440213046FEF7AEFE31
:1027E000002815D11725002280213046FEF7ABFEC8
:1027F000012280213046FEF7A6FE40213046FEF73A
:102800009DFE002802D00120A84004436D1EEAD599
:102810009F2020400D2803D00120FEF7DCFDDAE7E1
:1028200060023C70400CF8BD00000020000400482D
:1028300010B5012001F0A8F8012001F033F800F0F4
:102840000DF8044864234278C1680348121DFFF75D
:10285000D1FB10BD48010020B800002070B512491E
:10286000CA6808781070CA6848785070002210460C
:102870000AE04B68CD681C5C831CEC544B681B5C05
:102880009A18401CD2B2C0B24B788342F1D8CC68BF
:10289000831CE2544A7AC968C01C0A544021034888
:1028A000FDF792FC70BD000048010020D801002017
:1028B00010B50A48A1210170AF2141720021817039
:1028C00001724170064A4260203AC2600548C16107
:1028D00010461E214038FDF777FC10BD480100204E
:1028E000B801002020000020F0B5C54A00248FB0B8
:1028F00091420ADA4B005B08934206D801254A0050
:102900006D05EA4205D1002803D0FFF739FF0FB06B
:10291000F0BD01252D05A94219DA034308D000298D
:1029200010DA0120FEF7AEFBFFF733FF0FB0F0BD6A
:102930000220FEF7A7FBFFF719FF0122D207514043
:102940000FB0F0BD3524E4433622FEF7A1FB0A1593
:10295000AC4B1219D4180A03120BAB49AB4B5618E7
:102960002E403146594011430192321512190B92F3
:102970000022FDF7A4FE019A0446921C1003A44E07
:10298000000B0D467E44032860D2204673683268EF
:1029900001F06EF81CD10B98002815D0FEF7F7F85F
:1029A00004460E469B4A9C4BFEF7FCF80D46074634
:1029B0009A4A9B4B20463146FEF7F4F83A462B469E
:1029C000FDF770FE0FB0F0BD716830680FB0F0BD5C
:1029D000944A954B20462946FEF7E4F80022934B93
:1029E000FDF778FE06460F4622462B46104619464E
:1029F000FEF7D8F832463B46FEF7D4F806460B9869
:102A00000F4600281DD0FEF7C2F8824A824B05917E
:102A10000490FEF7C7F832463B46FDF75BFE2246C0
:102A20002B46FDF74CFE04460D467C4A7C4B05992F
:102A30000498FEF7B7F822462B46FDF740FE0FB08C
:102A4000F0BD0B46324620462946C4E00123002251
:102A50009B072046FDF726FE02460B4620462946E8
:102A6000FDF750FE06460F460B98FEF790F83246EB
:102A70003B460591049010461946FEF793F80991DC
:102A80000C906B490198099B421800920C9A1946C8
:102A90001046FEF787F8024607910A9065490198AB
:102AA0000B1A6548019303217844079BFFF708FE42
:102AB000079B0A9AFEF776F80E905F480D91042165
:102AC0007844079B0A9AFFF7FBFD099B0C9AFEF7D7
:102AD00069F8019B009A1A4300920D9B0E9AFDF72C
:102AE000E1FD009A01910C90002A4DDD0022D243B5
:102AF00020462946FEF7CCFA22462B46FEF752F82E
:102B000000910A900B9800282BD0424A424B05991D
:102B10000498FEF747F807910E90019B0C9A0099D4
:102B20000A98FDF7BFFD32463B46FEF73BF8079B90
:102B30000E9AFDF7B7FD009B0A9AFDF7CBFD2246E2
:102B40002B46FDF7BCFD04460D46344A344B05992F
:102B50000498FEF727F822462B46FDF7B0FD0FB08C
:102B6000F0BD019B0C9A0A98FDF79CFD32463B464E
:102B7000FEF718F8009B0A9AFDF7ACFD22462B469B
:102B8000FDF7A8FD0FB0F0BD0B98002827D0214A13
:102B9000214B05990498FEF705F80791009020460F
:102BA0002946019B0C9AFDF78AFD32463B46FDF70C
:102BB000F9FF079B009AFDF782FD22462B46FDF7A1
:102BC0007EFD04460D46154A154B05990498FDF700
:102BD000E9FF22462B46FDF772FD0FB0F0BD0B4614
:102BE000204629460C9AFDF76AFD32463B46FDF722
:102BF000D9FF22462B46FDF76DFD0FB0F0BD00005A
:102C00000000F07F01FCFFFF645F09000000F03F5F
:102C100000140000763C7935EF39EA3D0000E0FE13
:102C2000422EE63F555555555555D53F0000E03FDE
:102C300086EBF9FF51B806001C1200001FB5FEF725
:102C400097FCFFF7E3FAFFF73BFAFFF785FAFFF788
:102C50009BFA012279497A48FFF708F9794D002457
:102C6000012211462846FEF76EFC6420FEF7B3FBF6
:102C7000002201212846FEF766FC6420FEF7ABFB2C
:102C8000641C032CECDB0926F606002202213046E8
:102C9000FEF759FC7D24E4002046FEF79CFB012250
:102CA00002213046FEF74FFC6748FEF794FBFFF722
:102CB000FFFDFFF7BDFD2046FEF78DFB634E30782C
:102CC000042809D100F0FCFD2046FEF784FB00F04B
:102CD0008DFE2046FEF77FFB30784D2804D100F0B2
:102CE000CBFD2046FEF777FB002210212846FEF799
:102CF0002AFC002220212846FEF725FC0122802103
:102D00002846FEF720FC524C524D534E534F00F0D4
:102D100021FE7820FEF75FFB00F002FE7820FEF730
:102D20005AFB00F0E3FD7820FEF755FBFFF74EFD60
:102D3000606021780D2904D07F20C005E06101206A
:102D400054E0FEF78FF94649FEF77AF84549A0604E
:102D500000F0F4FEFEF724F9E060642802DA0020B7
:102D6000E06143E0FDF713FFFFF7BEFD00223E4B9D
:102D700000F084F801910090A069FEF737F8019BFC
:102D8000009AFDF70FFF01910290E068FDF7FFFE4A
:102D9000FFF7AAFD039100906069FEF727F8039BF7
:102DA000009AFDF7FFFE039100902069FEF71EF8E0
:102DB000039B009AFDF776FC019B029AFDF772FCDB
:102DC00002460B4600202949FDF79CFCFDF7B0FAAE
:102DD000FEF70CF8264A274BFDF771FCFDF7A8FA21
:102DE0002549E06100F0AAFEFEF700F96080144872
:102DF000A42170300170298864230A0A427081700E
:102E000031880A0AC270017139880A0A42718171D7
:102E100061880A0AC27101724A21417201460A227E
:102E2000E038FFF7E7F87D20C000FEF7D4FA044849
:102E300020217030FDF7CAF969E700002500002065
:102E4000B800002000040048B80B00002400002057
:102E50000000002026000020280000202A0000207A
:102E600000FEFF4600401C46000008400000F03F06
:102E700066666666661271400000C842F0B51FB40F
:102E800096B084460C460246199D18980390490056
:102E900068006300490840080193002A01D0012618
:102EA00000E000269E19FE4BF6185B109E422BD3C5
:102EB0006E00039F0296002F00D00127F719F84EED
:102EC000F84BBE199E421FD3039E0346F64F334371
:102ED00009D03B469C4201D1002A04D0019B002A24
:102EE00005D0012604E0002039461BB0F0BD0026C5
:102EF0009E19EE4B9E4207D8039F029E002F00D0E2
:102F00000127F6199E4207D92B4660462146189A9A
:102F1000FFF73BFC1BB0F0BD0023002C29DAE44E88
:102F2000B04226DAE34EB04201DB022321E0DE4E5E
:102F3000B0421EDBE04E070DBE19142E09DD34270A
:102F4000BF1B039EFE400196BE40039FBE420BD0B6
:102F50000FE0039F002F0CD11427BF1B0646FE4035
:102F60000196BE40864204D1019BDE07F60F022384
:102F70009B1B0E46164318D1002D16DA002C03D0E9
:102F8000022B01D0012B06D00220FEF77BF8FFF7C1
:102F9000EDFB1BB0F0BD0220FEF774F8FFF7E6FB77
:102FA0000122D20751401BB0F0BD039E002E61D11B
:102FB000BF4EB04220D1C148844201D1002A08D07E
:102FC000B948814209DB002D10DB189829461BB057
:102FD000F0BD0020B4491BB0F0BD002D06DA01227F
:102FE0002946D207189851401BB0F0BDB449794426
:102FF000086849681BB0F0BDAB4FB84225D1002D21
:103000001FDA002904D0B14212D1002A09D018E0F9
:10301000002A72D1A649E20F0020D20711431BB04B
:10302000F0BD0020E20F0146D20711431BB0F0BDF6
:10303000B14206DA234600203946FDF763FB1BB098
:10304000F0BD104621461BB0F0BDB14212DA012698
:10305000B607B54203D1234610461946FEE3994E02
:10306000B54207D1261E05DB1046314600F09AFC1A
:103070001BB0F0BD67007F081646002A40D100292A
:103080000AD08B4A914229D1002C0EDD002D1CDB89
:10309000002011461BB0F0BD022B16D0002C14D01E
:1030A000012B12D1002C14DB0FE0002C28DA002DAC
:1030B00009DB012B03D000207D491BB0F0BD0020AF
:1030C00081491BB0F0BD012B03D0002001461BB08D
:1030D000F0BD00200121C9071BB0F0BD724A91422A
:1030E0000ED1002C01DA002B17D0022B06D00020C5
:1030F000C043FDF74CFD1BB0F0BD90E20120F8E7A6
:10310000E217521C94461A4307D000220892664CDC
:1031100062465B1E1A4307D009E00120FDF7B2FFAB
:10312000FFF737FB1BB0F0BD0022644C0892674AE2
:1031300090427DDD664B674A98421FDD914202DC7A
:10314000002D05DB4DE05848814217DB002D48DD9E
:103150000220FDF797FFFFF725FB05460E460022EC
:10316000534B21460898FDF71DFD0846710049089C
:10317000C00FC007014328461BB0F0BD914215DACD
:10318000002D2EDA0220FDF77DFFFFF70BFB054631
:103190000E460022464B21460898FDF703FD7200BB
:1031A0005208C80FC0070243114617E03E4B994230
:1031B00023DD002D15DD0220FDF764FFFFF7F2FA95
:1031C00005460E4600223A4B21460898FDF7EAFCD8
:1031D000084671004908C00FC007014328461BB0CC
:1031E000F0BD0220FDF74EFFFFF7E6FA490049085F
:1031F000E20FD20711431BB0F0BD00223046394622
:10320000FDF75DFA012205460E46D243FDF740FF69
:10321000314A324BFDF75EFA2A463346FDF7C2FCCF
:103220000022284BFDF756FA07462A46334600E0AF
:1032300064E0039110461946FDF7B4FC3A46039B3F
:10324000FDF7B0FC0746032209915207244B28469C
:103250003146FDF7A7FC07910C90224A204B3846D7
:103260000999FDF79FFC074601911F4A1F4B28460D
:103270003146FDF797FC3A46019BFDF720FA0746D9
:103280000B460246099107990C98FDF70BFA0025A9
:103290000E462846079B0C9AFDF711FA3A4627E09E
:1032A000FFFF1F00FFFF0F000000F03F0000E0FFE6
:1032B0000000F07F0000404301FCFFFF0000F0BF72
:1032C000960D00000000E03F0000F0FF0000E0412C
:1032D0000000F043FFFFEF3F555555555555D53F7D
:1032E0004715F73FFE822B6544DF5DF80BAE543E79
:1032F000099BFDF7EFF902460B4652E1012500203C
:103300002D05A94207DA352230463946FDF7C0FEC1
:1033100006463420C0430A151218FE4810180390C0
:103320000803FD49000B01430F46FC49884201DCBC
:10333000002003E0FA49884202DA0120119005E0FA
:10334000002011900398401C7F1B03901198059753
:10335000C200F4480F9278448018436802683946E6
:1033600030460D930292FDF7AAF907910C90304672
:103370000D9B029A0599FDF795F902460B46002030
:10338000E549FDF7BFF909910490079B0C9AFDF7F9
:1033900009FC129000201090E3480D467844006824
:1033A0000E90012178104907084311990D9B89045B
:1033B00040180121C90447183946029A0E98FDF7B2
:1033C0007EF93246059BFDF785F902460B462946F4
:1033D0001098FDF7E7FB064602913B4629460E9AF8
:1033E0001098FDF7DFFB079B0C9AFDF773F9324647
:1033F000029BFDF764F9099B049AFDF7D3FB059145
:10340000129A0A902B4610461946FDF7CBFB06464A
:103410000246C6480F460B4606217844FFF750F98E
:1034200032463B460091049010461946FDF7BAFB20
:10343000009B049AFDF7B6FB06460F462B4619463D
:10344000129A1098FDF72EF9059B0A9AFDF7AAFB30
:1034500032463B46FDF726F9109A079104902B4619
:1034600010461946FDF79EFBB14E002233460991E6
:103470000290FDF717F9079B049AFDF713F9002056
:103480000746024633460091FDF719F9099B029A57
:10349000FDF715F9079B049AFDF71CF906460D91F7
:1034A0003A462946009B1098FDF77CFB07910C904B
:1034B0002B463046129A0D99FDF774FB05460E46D1
:1034C0003A46009B05990A98FDF76CFB33462A465D
:1034D000FDF7E8F802460B460746099107990C9854
:1034E000FDF7E0F800250E462846079B0C9AFDF7ED
:1034F000E6F83A46099BFDF7EDF8074607220991E1
:1035000052078C4B31462846FDF74CFB0791009043
:10351000894A884B38460999FDF744FB07460191D3
:10352000864A874B31462846FDF73CFB3A46019BCD
:10353000FDF7B8F8834B7B440F9A9B181A685B68B9
:10354000FDF7B0F8029009910398FDF720FB059173
:103550000490099B029A07990098FDF7A3F87A4B0B
:103560007B440F9A9B181A685B6817460393FDF714
:1035700099F8059B049AFDF795F80E462846059B99
:10358000049AFDF79CF83A46039BFDF798F8079BD1
:10359000009AFDF794F8099B029AFDF79BF8024602
:1035A0000B46199900200C900F461898FDF7FAFA6F
:1035B000029104903B460C9A19991898FDF77FF8F0
:1035C0002A463346FDF7EEFA029B049AFDF76AF8A5
:1035D00009910E902A46334639460C98FDF7E2FAD7
:1035E00006460F46099B0E9AFDF75CF8574A0D46B2
:1035F000914220DB5242AA18024310D132463B4688
:10360000FDF75DF804900391514A524B09990E98C9
:10361000FDF748F8039B049A00F05CFA1ED20220E2
:10362000FDF730FDFFF7BEF849004908E20FD20769
:1036300011431BB0F0BD6A00474B52089A420DD3AC
:10364000464AAA18024300D0CBE532463B46FDF776
:1036500036F8099B0E9A00F03DFAF5D96800002370
:1036600040082C490393020D3D4B5218984223DD2C
:1036700001200005521CD04042195000400D401856
:1036800038497944096813468C463749C1408B4311
:1036900012030121120B090551181422101AC140FE
:1036A0000391002D01DA48420390624630463946C4
:1036B000FDF705F806460F4632463B4609990E9837
:1036C000FCF7F0FF00252A46284B28460591FDF718
:1036D00069FA07910C90264A264B28460599FDF772
:1036E00061FA0091029032463B4628460599FCF764
:1036F000E6FF099B0E9AFCF7EDFF1F4A1F4BFDF7F3
:1037000051FA009B029AFCF7CDFF07460B46024692
:10371000099135E001FCFFFF0000F03F8E980300A7
:103720007AB60B00A6090000E809000012090000A3
:103730000000084009C7EE3FFD033ADCF5015B14C9
:10374000E02F3EBEE6070000AC07000000009040FE
:10375000FE822B654715973C00CC904000346F3FAC
:103760000000E03F02070000FFFF0F00432EE63F8E
:10377000396CA80C615C20BEEF39FAFE422EE63FA0
:1037800007990C98FCF78EFF05460E46079B0C9A8E
:10379000FCF795FF3A46099BFCF79CFF09912A46E6
:1037A00033460E9010461946FDF7FCF907460246CF
:1037B0002F480B46059105217844FEF781FF3A46D4
:1037C000059BFDF7EFF92A463346FCF783FF0746D2
:1037D000019128463146099B0E9AFDF7E3F9099BB2
:1037E0000E9AFCF75FFF012304910C9000229B07C7
:1037F00038460199FCF763FF05910E903A4628463A
:103800003146019BFDF7CEF9059B0E9AFCF77AFF36
:10381000049B0C9AFCF753FF2A463346FCF74FFFF4
:103820000022144BFCF756FF064603980D46000590
:1038300041190915002912DC30462946039AFDF783
:1038400027FCFEF727FF042801D1FEF7B5FF30461D
:103850002946039AFDF71CFC064601E004E02918FE
:103860000B46324621460898FDF79CF91BB0F0BD87
:10387000A40500000000F03F10B5012000F084F81E
:10388000402000F00FF8FEF7E9FF04486423427877
:10389000C1680348121DFEF7ADFB10BD48010020B2
:1038A000B800002005498A784B789A4204D24B68C8
:1038B00098548878401C88707047000048010020A8
:1038C00010B5012000F060F87020FFF7EBFFFEF765
:1038D000C5FF044864234278C1680348121DFEF7FF
:1038E00089FB10BD48010020B800002010B502205F
:1038F00000F04AF81020FFF7D5FF0320FFF7D2FFB2
:10390000FEF7ACFF044864234278C1680348121DE7
:10391000FEF770FB10BD000048010020B800002039
:1039200010B5022000F030F81020FFF7BBFF022096
:10393000FFF7B8FFFEF792FF044864234278C1689E
:103940000348121DFEF756FB10BD00004801002081
:10395000B800002010B5022000F016F81020FFF784
:10396000A1FF0120FFF79EFFFEF778FF04486423C4
:103970004278C1680348121DFEF73CFB10BD0000F1
:1039800048010020B800002010B505490022487009
:103990008A704A6801461046FCF716FC10BD00000C
:1039A00048010020F8B506460C46FDF7EDFB051E64
:1039B0000F4600D00120014349000B484908411A35
:1039C000C90F0DD0002E01D0012100E000210C43D1
:1039D00061004908401AC00F02D10120FDF752FBD7
:1039E00028463946F8BD00000000F07F10B5FFF70B
:1039F00067FF6420FDF7EFFC194C1A4960694840E5
:103A0000A0610920FFF7C0FF7120FFF74BFFA069FD
:103A1000000EFFF747FFA0690002000EFFF742FF0C
:103A2000208B0004000EFFF73DFF207EFFF73AFFDA
:103A30000020FFF737FF0020FFF734FF0020FFF7DB
:103A400031FF5F20FFF72EFFFEF708FF06486423D3
:103A50004278C1680548121DFEF7CCFA10BD00007F
:103A600020000020E841086148010020B800002043
:103A700070B501250C002D051C4310D4EC4206D472
:103A8000AC420AD4994200D070BD904270BDE94268
:103A900017D4EB4215D4994270BD894270BDEC42F7
:103AA00006D5AC42F9D58B4200D070BD824270BDC4
:103AB0006D004C00EC4204D25C00EC4201D28B421F
:103AC00070BD034C30B4FDF717FB30BC70BD00BFB8
:103AD0001900120470B501251C002D050C4310D4EB
:103AE000EC4206D4AC420AD48B4200D070BD824274
:103AF00070BDEB4217D4E94215D48B4270BD9B4296
:103B000070BDEC4206D5AC42F9D5994200D070BDEB
:103B1000904270BD6D005C00EC4204D24C00EC425F
:103B200001D2994270BD0FB4034C0CBC03BC30B43D
:103B3000FDF7E2FA30BC70BD1900160470B5420002
:103B400064414B005C41120E39D01B0E38D0FF2A65
:103B50003CD0FF2B3AD040024902400A490A0600F5
:103B600045184E43000A090AD2184843ED017F3A2E
:103B70000104731A4019190C4318990F04D001213C
:103B80005B0849075B1A521CD80904D3401CF50393
:103B900001D19D0607D0FF2A08D2D50506D0E4073B
:103BA0002043401970BD0125A843F4E7002A01DC39
:103BB000E00770BD2402FF202043C00570BD1B0E2E
:103BC000FF2A03D0FF2B01D0E00770BDFF26450080
:103BD0003606B54206D84D00B54203D8D218FF2AA2
:103BE00000D0E7E7004870BD0000C07F0000000083
:103BF000000000000102030406070809000000009D
:103C00000102030480807F7E7D7C7B7A79787776E1
:103C100076757473727171706F6E6E6D6C6C6B6AA9
:103C20006A69686867666665646463636261616047
:103C3000605F5F5E5E5D5D5C5C5B5B5A5A595958C4
:103C4000585757565655555554545353525252512E
:103C5000515050504F4F4F4E4E4D4D4D4C4C4C4B84
:103C60004B4B4A4A4A4949494848484747474746CB
:103C70004646454545444444444343434342424207
:103C8000424141418182838485868788898B8C8DDE
:103C90008E8F919293959697999A9C9D9FA0A2A39F
:103CA000A5A7A8AAACAEB0B2B3B5B7B9BCBEC0C2E6
:103CB000C5C7C9CCCED1D4D7D9DCDFE2E6E9ECF078
:103CC000F3F7FAFE0000000004FA97999999D93F9A
:103CD000AF788E1DC571CC3F9FC678D0099AC33F7F
:103CE000935555555555E53F599322942449D23F54
:103CF000DE03CB966446C73F44523EDF12F1C23F1B
:103D0000000000000000F03F000000000000F83F4D
:103D100000000000000000000000004003B8E23F87
:103D2000000000000000000006D0CF43EBFD4C3E39
:103D3000033333333333E33FFFAB6FDBB66DDB3F2E
:103D40004D268F515555D53F01411DA96074D13F76
:103D500065DBC9934A86CD3FEF4E454A287ECA3F70
:103D60003E5555555555C53F93BDBE166CC166BFF2
:103D70002CDE25AF6A56113FF16BD2C541BDBBBEEB
:103D8000D0A4BE726937663E00000000000000004B
:103D9000B03D00080000002048000000F8000008C6
:103DA000F83D000848000020300800001401000819
:103DB0000000000000000000000000000000000003
:103DC00047229F3A599176395E75C333000000004F
:103DD00000000000000000000000000000000000E3
:103DE00000000000000000000000000000000000D3
:083DF0000000000000127A003F
:04000005080000B53A
:00000001FF
